{
  "_format": "hh-sol-artifact-1",
  "contractName": "Requests",
  "sourceName": "contracts/libraries/Requests.sol",
  "abi": [
    {
      "inputs": [],
      "name": "REQUEST_TYPEHASH",
      "outputs": [
        {
          "internalType": "bytes32",
          "name": "",
          "type": "bytes32"
        }
      ],
      "stateMutability": "view",
      "type": "function"
    }
  ],
  "bytecode": "0x60a6610038600b82828239805160001a607314602b57634e487b7160e01b600052600060045260246000fd5b30600052607381538281f3fe730000000000000000000000000000000000000000301460806040526004361060335760003560e01c80639e39b73e146038575b600080fd5b605e7fd32aee5345fa208c941f81688a0bd6baed57015ace9fce44cfd25c5fb8a5fbf781565b60405190815260200160405180910390f3fea264697066735822122010e8fe4b97ff97fa3935325b6c8b2f11dc69d44f72edc901b1318d8da13a798f64736f6c63430008040033",
  "linkReferences": {},
  "deployedLinkReferences": {}
}