{
  "_format": "hh-sol-artifact-1",
  "contractName": "MockBEP20Price",
  "sourceName": "contracts/mockup/MockBEP20Price.sol",
  "abi": [
    {
      "anonymous": false,
      "inputs": [
        {
          "indexed": true,
          "internalType": "address",
          "name": "previousOwner",
          "type": "address"
        },
        {
          "indexed": true,
          "internalType": "address",
          "name": "newOwner",
          "type": "address"
        }
      ],
      "name": "OwnershipTransferred",
      "type": "event"
    },
    {
      "inputs": [],
      "name": "getBNBPrice",
      "outputs": [
        {
          "internalType": "uint256",
          "name": "",
          "type": "uint256"
        }
      ],
      "stateMutability": "pure",
      "type": "function"
    },
    {
      "inputs": [
        {
          "internalType": "address",
          "name": "_token",
          "type": "address"
        },
        {
          "internalType": "uint256",
          "name": "_digits",
          "type": "uint256"
        }
      ],
      "name": "getTokenPrice",
      "outputs": [
        {
          "internalType": "uint256",
          "name": "",
          "type": "uint256"
        }
      ],
      "stateMutability": "view",
      "type": "function"
    },
    {
      "inputs": [],
      "name": "owner",
      "outputs": [
        {
          "internalType": "address",
          "name": "",
          "type": "address"
        }
      ],
      "stateMutability": "view",
      "type": "function"
    },
    {
      "inputs": [],
      "name": "renounceOwnership",
      "outputs": [],
      "stateMutability": "nonpayable",
      "type": "function"
    },
    {
      "inputs": [
        {
          "internalType": "address",
          "name": "_token",
          "type": "address"
        },
        {
          "internalType": "uint256",
          "name": "_price",
          "type": "uint256"
        }
      ],
      "name": "setTokenPrice",
      "outputs": [],
      "stateMutability": "nonpayable",
      "type": "function"
    },
    {
      "inputs": [
        {
          "internalType": "address",
          "name": "newOwner",
          "type": "address"
        }
      ],
      "name": "transferOwnership",
      "outputs": [],
      "stateMutability": "nonpayable",
      "type": "function"
    }
  ],
  "bytecode": "0x60806040526801a055690d9db8000060015534801561001d57600080fd5b506100273361002c565b61007c565b600080546001600160a01b038381166001600160a01b0319831681178455604051919092169283917f8be0079c531659141344cd1fd0a4f28419497f9722a3daafe3b4186f6b6457e09190a35050565b6103158061008b6000396000f3fe608060405234801561001057600080fd5b50600436106100625760003560e01c8063431f63c914610067578063715018a61461007c5780638da5cb5b14610084578063c9f7153c146100a4578063f2220c9e146100c8578063f2fde38b146100d7575b600080fd5b61007a610075366004610281565b6100ea565b005b61007a610123565b6000546040516001600160a01b0390911681526020015b60405180910390f35b6100ba6100b2366004610281565b505060015490565b60405190815260200161009b565b6801a055690d9db800006100ba565b61007a6100e5366004610260565b610159565b6000546001600160a01b0316331461011d5760405162461bcd60e51b8152600401610114906102aa565b60405180910390fd5b60015550565b6000546001600160a01b0316331461014d5760405162461bcd60e51b8152600401610114906102aa565b61015760006101f4565b565b6000546001600160a01b031633146101835760405162461bcd60e51b8152600401610114906102aa565b6001600160a01b0381166101e85760405162461bcd60e51b815260206004820152602660248201527f4f776e61626c653a206e6577206f776e657220697320746865207a65726f206160448201526564647265737360d01b6064820152608401610114565b6101f1816101f4565b50565b600080546001600160a01b038381166001600160a01b0319831681178455604051919092169283917f8be0079c531659141344cd1fd0a4f28419497f9722a3daafe3b4186f6b6457e09190a35050565b80356001600160a01b038116811461025b57600080fd5b919050565b600060208284031215610271578081fd5b61027a82610244565b9392505050565b60008060408385031215610293578081fd5b61029c83610244565b946020939093013593505050565b6020808252818101527f4f776e61626c653a2063616c6c6572206973206e6f7420746865206f776e657260408201526060019056fea26469706673582212205c207c38124d4a71b30aaeb795fdb549d1189ec58cab10985542b3ed846c6f1364736f6c63430008040033",
  "linkReferences": {},
  "deployedLinkReferences": {}
}