{
  "_format": "hh-sol-artifact-1",
  "contractName": "BEP20Price",
  "sourceName": "contracts/BEP20Price.sol",
  "abi": [
    {
      "anonymous": false,
      "inputs": [
        {
          "indexed": true,
          "internalType": "address",
          "name": "previousOwner",
          "type": "address"
        },
        {
          "indexed": true,
          "internalType": "address",
          "name": "newOwner",
          "type": "address"
        }
      ],
      "name": "OwnershipTransferred",
      "type": "event"
    },
    {
      "inputs": [],
      "name": "busdAddress",
      "outputs": [
        {
          "internalType": "address",
          "name": "",
          "type": "address"
        }
      ],
      "stateMutability": "view",
      "type": "function"
    },
    {
      "inputs": [],
      "name": "factoryAddress",
      "outputs": [
        {
          "internalType": "address",
          "name": "",
          "type": "address"
        }
      ],
      "stateMutability": "view",
      "type": "function"
    },
    {
      "inputs": [],
      "name": "getBNBPrice",
      "outputs": [
        {
          "internalType": "uint256",
          "name": "",
          "type": "uint256"
        }
      ],
      "stateMutability": "view",
      "type": "function"
    },
    {
      "inputs": [
        {
          "internalType": "address",
          "name": "_token",
          "type": "address"
        },
        {
          "internalType": "uint256",
          "name": "_digits",
          "type": "uint256"
        }
      ],
      "name": "getTokenPrice",
      "outputs": [
        {
          "internalType": "uint256",
          "name": "",
          "type": "uint256"
        }
      ],
      "stateMutability": "view",
      "type": "function"
    },
    {
      "inputs": [
        {
          "internalType": "address",
          "name": "_factoryAddress",
          "type": "address"
        },
        {
          "internalType": "address",
          "name": "_wbnbAddress",
          "type": "address"
        },
        {
          "internalType": "address",
          "name": "_busdAddress",
          "type": "address"
        }
      ],
      "name": "initialize",
      "outputs": [],
      "stateMutability": "nonpayable",
      "type": "function"
    },
    {
      "inputs": [],
      "name": "owner",
      "outputs": [
        {
          "internalType": "address",
          "name": "",
          "type": "address"
        }
      ],
      "stateMutability": "view",
      "type": "function"
    },
    {
      "inputs": [],
      "name": "renounceOwnership",
      "outputs": [],
      "stateMutability": "nonpayable",
      "type": "function"
    },
    {
      "inputs": [
        {
          "internalType": "address",
          "name": "newOwner",
          "type": "address"
        }
      ],
      "name": "transferOwnership",
      "outputs": [],
      "stateMutability": "nonpayable",
      "type": "function"
    },
    {
      "inputs": [],
      "name": "wbnbAddress",
      "outputs": [
        {
          "internalType": "address",
          "name": "",
          "type": "address"
        }
      ],
      "stateMutability": "view",
      "type": "function"
    }
  ],
  "bytecode": "0x608060405234801561001057600080fd5b5061001a3361001f565b61006f565b600080546001600160a01b038381166001600160a01b0319831681178455604051919092169283917f8be0079c531659141344cd1fd0a4f28419497f9722a3daafe3b4186f6b6457e09190a35050565b6107508061007e6000396000f3fe608060405234801561001057600080fd5b50600436106100935760003560e01c8063966dae0e11610066578063966dae0e146100f6578063c0c53b8b14610109578063c9f7153c1461011c578063f2220c9e1461013d578063f2fde38b1461014557600080fd5b806363fe3e3a14610098578063715018a6146100c857806376a90231146100d25780638da5cb5b146100e5575b600080fd5b6002546100ab906001600160a01b031681565b6040516001600160a01b0390911681526020015b60405180910390f35b6100d0610158565b005b6003546100ab906001600160a01b031681565b6000546001600160a01b03166100ab565b6001546100ab906001600160a01b031681565b6100d06101173660046105cd565b610197565b61012f61012a366004610617565b610200565b6040519081526020016100bf565b61012f61024c565b6100d0610153366004610595565b61025b565b6000546001600160a01b0316331461018b5760405162461bcd60e51b815260040161018290610685565b60405180910390fd5b61019560006102f6565b565b6000546001600160a01b031633146101c15760405162461bcd60e51b815260040161018290610685565b600180546001600160a01b039485166001600160a01b031991821617909155600280549385169382169390931790925560038054919093169116179055565b6002546000908190819061021e9086906001600160a01b0316610346565b91509150600061022c610515565b90506102428361023c848461055a565b9061056d565b9695505050505050565b6000610256610515565b905090565b6000546001600160a01b031633146102855760405162461bcd60e51b815260040161018290610685565b6001600160a01b0381166102ea5760405162461bcd60e51b815260206004820152602660248201527f4f776e61626c653a206e6577206f776e657220697320746865207a65726f206160448201526564647265737360d01b6064820152608401610182565b6102f3816102f6565b50565b600080546001600160a01b038381166001600160a01b0319831681178455604051919092169283917f8be0079c531659141344cd1fd0a4f28419497f9722a3daafe3b4186f6b6457e09190a35050565b60015460405163e6a4390560e01b81526001600160a01b0384811660048301528381166024830152600092839283929091169063e6a439059060440160206040518083038186803b15801561039a57600080fd5b505afa1580156103ae573d6000803e3d6000fd5b505050506040513d601f19601f820116820180604052508101906103d291906105b1565b90506000819050600080826001600160a01b0316630902f1ac6040518163ffffffff1660e01b815260040160606040518083038186803b15801561041557600080fd5b505afa158015610429573d6000803e3d6000fd5b505050506040513d601f19601f8201168201806040525081019061044d9190610642565b506001600160701b031691506001600160701b031691506000836001600160a01b0316630dfe16816040518163ffffffff1660e01b815260040160206040518083038186803b15801561049f57600080fd5b505afa1580156104b3573d6000803e3d6000fd5b505050506040513d601f19601f820116820180604052508101906104d791906105b1565b9050886001600160a01b0316816001600160a01b031614156105015750909450925061050e915050565b509450925061050e915050565b9250929050565b60025460035460009182918291610538916001600160a01b039182169116610346565b90925090506105538261023c83670de0b6b3a764000061055a565b9250505090565b600061056682846106da565b9392505050565b600061056682846106ba565b80516001600160701b038116811461059057600080fd5b919050565b6000602082840312156105a6578081fd5b813561056681610705565b6000602082840312156105c2578081fd5b815161056681610705565b6000806000606084860312156105e1578182fd5b83356105ec81610705565b925060208401356105fc81610705565b9150604084013561060c81610705565b809150509250925092565b60008060408385031215610629578182fd5b823561063481610705565b946020939093013593505050565b600080600060608486031215610656578283fd5b61065f84610579565b925061066d60208501610579565b9150604084015163ffffffff8116811461060c578182fd5b6020808252818101527f4f776e61626c653a2063616c6c6572206973206e6f7420746865206f776e6572604082015260600190565b6000826106d557634e487b7160e01b81526012600452602481fd5b500490565b600081600019048311821515161561070057634e487b7160e01b81526011600452602481fd5b500290565b6001600160a01b03811681146102f357600080fdfea2646970667358221220559086f408b07d23c61834e32e0de4e4a017df8790b8506d894c41ad89b65c5164736f6c63430008040033",
  "linkReferences": {},
  "deployedLinkReferences": {}
}