{
  "_format": "hh-sol-artifact-1",
  "contractName": "ArcadeSwapV1",
  "sourceName": "contracts/ArcadeSwapV1.sol",
  "abi": [
    {
      "inputs": [],
      "stateMutability": "nonpayable",
      "type": "constructor"
    },
    {
      "anonymous": false,
      "inputs": [
        {
          "indexed": false,
          "internalType": "address",
          "name": "previousAdmin",
          "type": "address"
        },
        {
          "indexed": false,
          "internalType": "address",
          "name": "newAdmin",
          "type": "address"
        }
      ],
      "name": "AdminChanged",
      "type": "event"
    },
    {
      "anonymous": false,
      "inputs": [
        {
          "indexed": true,
          "internalType": "address",
          "name": "beacon",
          "type": "address"
        }
      ],
      "name": "BeaconUpgraded",
      "type": "event"
    },
    {
      "anonymous": false,
      "inputs": [
        {
          "indexed": true,
          "internalType": "uint256",
          "name": "_gameId",
          "type": "uint256"
        }
      ],
      "name": "ClearGame",
      "type": "event"
    },
    {
      "anonymous": false,
      "inputs": [
        {
          "indexed": true,
          "internalType": "uint256",
          "name": "_gameId",
          "type": "uint256"
        },
        {
          "indexed": true,
          "internalType": "address",
          "name": "_user",
          "type": "address"
        }
      ],
      "name": "ClearUser",
      "type": "event"
    },
    {
      "anonymous": false,
      "inputs": [
        {
          "indexed": true,
          "internalType": "uint256",
          "name": "_gameId",
          "type": "uint256"
        },
        {
          "indexed": false,
          "internalType": "bool",
          "name": "_active",
          "type": "bool"
        }
      ],
      "name": "GameActive",
      "type": "event"
    },
    {
      "anonymous": false,
      "inputs": [
        {
          "indexed": true,
          "internalType": "uint256",
          "name": "_gameId",
          "type": "uint256"
        },
        {
          "indexed": false,
          "internalType": "uint256",
          "name": "_gcPerUSD",
          "type": "uint256"
        }
      ],
      "name": "GameGcPerUSD",
      "type": "event"
    },
    {
      "anonymous": false,
      "inputs": [
        {
          "indexed": true,
          "internalType": "uint256",
          "name": "_gameId",
          "type": "uint256"
        },
        {
          "indexed": true,
          "internalType": "uint256",
          "name": "_gcPerUSD",
          "type": "uint256"
        },
        {
          "indexed": true,
          "internalType": "address",
          "name": "_gcToken",
          "type": "address"
        },
        {
          "indexed": false,
          "internalType": "string",
          "name": "_gcName",
          "type": "string"
        },
        {
          "indexed": false,
          "internalType": "string",
          "name": "_gcSymbol",
          "type": "string"
        }
      ],
      "name": "NewGame",
      "type": "event"
    },
    {
      "anonymous": false,
      "inputs": [
        {
          "indexed": true,
          "internalType": "address",
          "name": "previousOwner",
          "type": "address"
        },
        {
          "indexed": true,
          "internalType": "address",
          "name": "newOwner",
          "type": "address"
        }
      ],
      "name": "OwnershipTransferred",
      "type": "event"
    },
    {
      "anonymous": false,
      "inputs": [
        {
          "indexed": false,
          "internalType": "address",
          "name": "account",
          "type": "address"
        }
      ],
      "name": "Paused",
      "type": "event"
    },
    {
      "anonymous": false,
      "inputs": [
        {
          "indexed": false,
          "internalType": "uint256",
          "name": "_duration",
          "type": "uint256"
        }
      ],
      "name": "SetTxDuration",
      "type": "event"
    },
    {
      "anonymous": false,
      "inputs": [
        {
          "indexed": true,
          "internalType": "uint256",
          "name": "_type",
          "type": "uint256"
        },
        {
          "indexed": true,
          "internalType": "uint256",
          "name": "_gameId",
          "type": "uint256"
        },
        {
          "indexed": true,
          "internalType": "address",
          "name": "_user",
          "type": "address"
        },
        {
          "indexed": false,
          "internalType": "uint256",
          "name": "_amount",
          "type": "uint256"
        },
        {
          "indexed": false,
          "internalType": "uint256",
          "name": "_received",
          "type": "uint256"
        },
        {
          "indexed": false,
          "internalType": "uint256",
          "name": "_minted",
          "type": "uint256"
        }
      ],
      "name": "SwapGameCurrency",
      "type": "event"
    },
    {
      "anonymous": false,
      "inputs": [
        {
          "indexed": true,
          "internalType": "uint256",
          "name": "_gameId",
          "type": "uint256"
        },
        {
          "indexed": true,
          "internalType": "address",
          "name": "_user",
          "type": "address"
        },
        {
          "indexed": false,
          "internalType": "uint256",
          "name": "_gcAmount",
          "type": "uint256"
        }
      ],
      "name": "TransferGameToWallet",
      "type": "event"
    },
    {
      "anonymous": false,
      "inputs": [
        {
          "indexed": true,
          "internalType": "uint256",
          "name": "_gameId",
          "type": "uint256"
        },
        {
          "indexed": true,
          "internalType": "address",
          "name": "_user",
          "type": "address"
        },
        {
          "indexed": false,
          "internalType": "uint256",
          "name": "_gcAmount",
          "type": "uint256"
        }
      ],
      "name": "TransferWalletToGame",
      "type": "event"
    },
    {
      "anonymous": false,
      "inputs": [
        {
          "indexed": false,
          "internalType": "address",
          "name": "account",
          "type": "address"
        }
      ],
      "name": "Unpaused",
      "type": "event"
    },
    {
      "anonymous": false,
      "inputs": [
        {
          "indexed": true,
          "internalType": "address",
          "name": "implementation",
          "type": "address"
        }
      ],
      "name": "Upgraded",
      "type": "event"
    },
    {
      "inputs": [],
      "name": "DOMAIN_SEPARATOR",
      "outputs": [
        {
          "internalType": "bytes32",
          "name": "",
          "type": "bytes32"
        }
      ],
      "stateMutability": "view",
      "type": "function"
    },
    {
      "inputs": [
        {
          "internalType": "contract IBEP20Price",
          "name": "_bep20Price",
          "type": "address"
        },
        {
          "internalType": "contract IERC20Upgradeable",
          "name": "_token",
          "type": "address"
        }
      ],
      "name": "__ArcadeSwap_init",
      "outputs": [],
      "stateMutability": "nonpayable",
      "type": "function"
    },
    {
      "inputs": [],
      "name": "arcToken",
      "outputs": [
        {
          "internalType": "contract IERC20Upgradeable",
          "name": "",
          "type": "address"
        }
      ],
      "stateMutability": "view",
      "type": "function"
    },
    {
      "inputs": [],
      "name": "backendSigner",
      "outputs": [
        {
          "internalType": "address",
          "name": "",
          "type": "address"
        }
      ],
      "stateMutability": "view",
      "type": "function"
    },
    {
      "inputs": [],
      "name": "bep20Price",
      "outputs": [
        {
          "internalType": "contract IBEP20Price",
          "name": "",
          "type": "address"
        }
      ],
      "stateMutability": "view",
      "type": "function"
    },
    {
      "inputs": [
        {
          "components": [
            {
              "internalType": "address",
              "name": "maker",
              "type": "address"
            },
            {
              "internalType": "address",
              "name": "requester",
              "type": "address"
            },
            {
              "internalType": "address",
              "name": "gcToken",
              "type": "address"
            },
            {
              "internalType": "uint256",
              "name": "gameId",
              "type": "uint256"
            },
            {
              "internalType": "uint256",
              "name": "amount",
              "type": "uint256"
            },
            {
              "internalType": "uint256",
              "name": "reserved1",
              "type": "uint256"
            },
            {
              "internalType": "uint256",
              "name": "reserved2",
              "type": "uint256"
            },
            {
              "internalType": "uint8",
              "name": "v",
              "type": "uint8"
            },
            {
              "internalType": "bytes32",
              "name": "r",
              "type": "bytes32"
            },
            {
              "internalType": "bytes32",
              "name": "s",
              "type": "bytes32"
            }
          ],
          "internalType": "struct Requests.Request",
          "name": "request",
          "type": "tuple"
        }
      ],
      "name": "burnGc",
      "outputs": [],
      "stateMutability": "nonpayable",
      "type": "function"
    },
    {
      "inputs": [
        {
          "components": [
            {
              "internalType": "address",
              "name": "maker",
              "type": "address"
            },
            {
              "internalType": "address",
              "name": "requester",
              "type": "address"
            },
            {
              "internalType": "address",
              "name": "gcToken",
              "type": "address"
            },
            {
              "internalType": "uint256",
              "name": "gameId",
              "type": "uint256"
            },
            {
              "internalType": "uint256",
              "name": "amount",
              "type": "uint256"
            },
            {
              "internalType": "uint256",
              "name": "reserved1",
              "type": "uint256"
            },
            {
              "internalType": "uint256",
              "name": "reserved2",
              "type": "uint256"
            },
            {
              "internalType": "uint8",
              "name": "v",
              "type": "uint8"
            },
            {
              "internalType": "bytes32",
              "name": "r",
              "type": "bytes32"
            },
            {
              "internalType": "bytes32",
              "name": "s",
              "type": "bytes32"
            }
          ],
          "internalType": "struct Requests.Request",
          "name": "request",
          "type": "tuple"
        }
      ],
      "name": "buyGc",
      "outputs": [],
      "stateMutability": "nonpayable",
      "type": "function"
    },
    {
      "inputs": [
        {
          "internalType": "uint256",
          "name": "_gameId",
          "type": "uint256"
        },
        {
          "internalType": "uint256",
          "name": "_startFrom",
          "type": "uint256"
        },
        {
          "internalType": "uint256",
          "name": "_endTo",
          "type": "uint256"
        }
      ],
      "name": "clearGame",
      "outputs": [],
      "stateMutability": "nonpayable",
      "type": "function"
    },
    {
      "inputs": [
        {
          "internalType": "uint256",
          "name": "_gameId",
          "type": "uint256"
        },
        {
          "internalType": "address",
          "name": "_user",
          "type": "address"
        }
      ],
      "name": "clearUser",
      "outputs": [],
      "stateMutability": "nonpayable",
      "type": "function"
    },
    {
      "inputs": [
        {
          "internalType": "uint256",
          "name": "",
          "type": "uint256"
        }
      ],
      "name": "gameInfo",
      "outputs": [
        {
          "internalType": "uint256",
          "name": "id",
          "type": "uint256"
        },
        {
          "internalType": "uint256",
          "name": "gcPerUSD",
          "type": "uint256"
        },
        {
          "internalType": "address",
          "name": "gcToken",
          "type": "address"
        },
        {
          "internalType": "string",
          "name": "gcName",
          "type": "string"
        },
        {
          "internalType": "string",
          "name": "gcSymbol",
          "type": "string"
        },
        {
          "internalType": "bool",
          "name": "isActive",
          "type": "bool"
        }
      ],
      "stateMutability": "view",
      "type": "function"
    },
    {
      "inputs": [
        {
          "internalType": "uint256",
          "name": "",
          "type": "uint256"
        },
        {
          "internalType": "uint256",
          "name": "",
          "type": "uint256"
        }
      ],
      "name": "gameUsers",
      "outputs": [
        {
          "internalType": "address",
          "name": "",
          "type": "address"
        }
      ],
      "stateMutability": "view",
      "type": "function"
    },
    {
      "inputs": [
        {
          "internalType": "uint256",
          "name": "",
          "type": "uint256"
        },
        {
          "internalType": "address",
          "name": "",
          "type": "address"
        }
      ],
      "name": "gameUsersAdded",
      "outputs": [
        {
          "internalType": "bool",
          "name": "",
          "type": "bool"
        }
      ],
      "stateMutability": "view",
      "type": "function"
    },
    {
      "inputs": [],
      "name": "initialize",
      "outputs": [],
      "stateMutability": "nonpayable",
      "type": "function"
    },
    {
      "inputs": [
        {
          "internalType": "address",
          "name": "",
          "type": "address"
        },
        {
          "internalType": "uint256",
          "name": "",
          "type": "uint256"
        }
      ],
      "name": "lastTxTime",
      "outputs": [
        {
          "internalType": "uint256",
          "name": "",
          "type": "uint256"
        }
      ],
      "stateMutability": "view",
      "type": "function"
    },
    {
      "inputs": [
        {
          "components": [
            {
              "internalType": "address",
              "name": "maker",
              "type": "address"
            },
            {
              "internalType": "address",
              "name": "requester",
              "type": "address"
            },
            {
              "internalType": "address",
              "name": "gcToken",
              "type": "address"
            },
            {
              "internalType": "uint256",
              "name": "gameId",
              "type": "uint256"
            },
            {
              "internalType": "uint256",
              "name": "amount",
              "type": "uint256"
            },
            {
              "internalType": "uint256",
              "name": "reserved1",
              "type": "uint256"
            },
            {
              "internalType": "uint256",
              "name": "reserved2",
              "type": "uint256"
            },
            {
              "internalType": "uint8",
              "name": "v",
              "type": "uint8"
            },
            {
              "internalType": "bytes32",
              "name": "r",
              "type": "bytes32"
            },
            {
              "internalType": "bytes32",
              "name": "s",
              "type": "bytes32"
            }
          ],
          "internalType": "struct Requests.Request",
          "name": "request",
          "type": "tuple"
        }
      ],
      "name": "mintGc",
      "outputs": [],
      "stateMutability": "nonpayable",
      "type": "function"
    },
    {
      "inputs": [],
      "name": "owner",
      "outputs": [
        {
          "internalType": "address",
          "name": "",
          "type": "address"
        }
      ],
      "stateMutability": "view",
      "type": "function"
    },
    {
      "inputs": [],
      "name": "pause",
      "outputs": [],
      "stateMutability": "nonpayable",
      "type": "function"
    },
    {
      "inputs": [],
      "name": "paused",
      "outputs": [
        {
          "internalType": "bool",
          "name": "",
          "type": "bool"
        }
      ],
      "stateMutability": "view",
      "type": "function"
    },
    {
      "inputs": [],
      "name": "renounceOwnership",
      "outputs": [],
      "stateMutability": "nonpayable",
      "type": "function"
    },
    {
      "inputs": [
        {
          "components": [
            {
              "internalType": "address",
              "name": "maker",
              "type": "address"
            },
            {
              "internalType": "address",
              "name": "requester",
              "type": "address"
            },
            {
              "internalType": "address",
              "name": "gcToken",
              "type": "address"
            },
            {
              "internalType": "uint256",
              "name": "gameId",
              "type": "uint256"
            },
            {
              "internalType": "uint256",
              "name": "amount",
              "type": "uint256"
            },
            {
              "internalType": "uint256",
              "name": "reserved1",
              "type": "uint256"
            },
            {
              "internalType": "uint256",
              "name": "reserved2",
              "type": "uint256"
            },
            {
              "internalType": "uint8",
              "name": "v",
              "type": "uint8"
            },
            {
              "internalType": "bytes32",
              "name": "r",
              "type": "bytes32"
            },
            {
              "internalType": "bytes32",
              "name": "s",
              "type": "bytes32"
            }
          ],
          "internalType": "struct Requests.Request",
          "name": "request",
          "type": "tuple"
        }
      ],
      "name": "sellGc",
      "outputs": [],
      "stateMutability": "nonpayable",
      "type": "function"
    },
    {
      "inputs": [
        {
          "internalType": "contract IERC20Upgradeable",
          "name": "_arcToken",
          "type": "address"
        }
      ],
      "name": "setArcToken",
      "outputs": [],
      "stateMutability": "nonpayable",
      "type": "function"
    },
    {
      "inputs": [
        {
          "internalType": "address",
          "name": "_signer",
          "type": "address"
        }
      ],
      "name": "setBackendSigner",
      "outputs": [],
      "stateMutability": "nonpayable",
      "type": "function"
    },
    {
      "inputs": [
        {
          "internalType": "uint256",
          "name": "_gameId",
          "type": "uint256"
        },
        {
          "internalType": "uint256",
          "name": "_commission1",
          "type": "uint256"
        },
        {
          "internalType": "uint256",
          "name": "_commission2",
          "type": "uint256"
        },
        {
          "internalType": "address",
          "name": "_treasury1",
          "type": "address"
        },
        {
          "internalType": "address",
          "name": "_treasury2",
          "type": "address"
        }
      ],
      "name": "setCommission",
      "outputs": [],
      "stateMutability": "nonpayable",
      "type": "function"
    },
    {
      "inputs": [
        {
          "internalType": "uint256",
          "name": "_gameId",
          "type": "uint256"
        },
        {
          "internalType": "bool",
          "name": "_active",
          "type": "bool"
        }
      ],
      "name": "setGameActive",
      "outputs": [],
      "stateMutability": "nonpayable",
      "type": "function"
    },
    {
      "inputs": [
        {
          "internalType": "uint256",
          "name": "_gameId",
          "type": "uint256"
        },
        {
          "internalType": "uint256",
          "name": "_gcPerUSD",
          "type": "uint256"
        }
      ],
      "name": "setGameGcPerUSD",
      "outputs": [],
      "stateMutability": "nonpayable",
      "type": "function"
    },
    {
      "inputs": [
        {
          "internalType": "uint256",
          "name": "_gameId",
          "type": "uint256"
        },
        {
          "internalType": "uint256",
          "name": "_gcPerUSD",
          "type": "uint256"
        },
        {
          "internalType": "string",
          "name": "_gcName",
          "type": "string"
        },
        {
          "internalType": "string",
          "name": "_gcSymbol",
          "type": "string"
        }
      ],
      "name": "setNewGame",
      "outputs": [],
      "stateMutability": "nonpayable",
      "type": "function"
    },
    {
      "inputs": [
        {
          "internalType": "uint256",
          "name": "_duration",
          "type": "uint256"
        }
      ],
      "name": "setTxDuration",
      "outputs": [],
      "stateMutability": "nonpayable",
      "type": "function"
    },
    {
      "inputs": [
        {
          "internalType": "address",
          "name": "newOwner",
          "type": "address"
        }
      ],
      "name": "transferOwnership",
      "outputs": [],
      "stateMutability": "nonpayable",
      "type": "function"
    },
    {
      "inputs": [
        {
          "internalType": "address",
          "name": "_to",
          "type": "address"
        },
        {
          "internalType": "uint256",
          "name": "_amount",
          "type": "uint256"
        }
      ],
      "name": "transferTo",
      "outputs": [],
      "stateMutability": "nonpayable",
      "type": "function"
    },
    {
      "inputs": [],
      "name": "txDuration",
      "outputs": [
        {
          "internalType": "uint256",
          "name": "",
          "type": "uint256"
        }
      ],
      "stateMutability": "view",
      "type": "function"
    },
    {
      "inputs": [],
      "name": "unpause",
      "outputs": [],
      "stateMutability": "nonpayable",
      "type": "function"
    },
    {
      "inputs": [
        {
          "internalType": "address",
          "name": "newImplementation",
          "type": "address"
        }
      ],
      "name": "upgradeTo",
      "outputs": [],
      "stateMutability": "nonpayable",
      "type": "function"
    },
    {
      "inputs": [
        {
          "internalType": "address",
          "name": "newImplementation",
          "type": "address"
        },
        {
          "internalType": "bytes",
          "name": "data",
          "type": "bytes"
        }
      ],
      "name": "upgradeToAndCall",
      "outputs": [],
      "stateMutability": "payable",
      "type": "function"
    },
    {
      "inputs": [
        {
          "internalType": "uint256",
          "name": "",
          "type": "uint256"
        },
        {
          "internalType": "address",
          "name": "",
          "type": "address"
        }
      ],
      "name": "userInfo",
      "outputs": [
        {
          "internalType": "uint256",
          "name": "weightedAverage",
          "type": "uint256"
        },
        {
          "internalType": "uint256",
          "name": "gcAmount",
          "type": "uint256"
        },
        {
          "internalType": "int256",
          "name": "arcAmount",
          "type": "int256"
        }
      ],
      "stateMutability": "view",
      "type": "function"
    },
    {
      "inputs": [],
      "name": "version",
      "outputs": [
        {
          "internalType": "uint256",
          "name": "",
          "type": "uint256"
        }
      ],
      "stateMutability": "view",
      "type": "function"
    },
    {
      "inputs": [
        {
          "internalType": "uint256",
          "name": "_gameId",
          "type": "uint256"
        }
      ],
      "name": "viewCommission",
      "outputs": [
        {
          "components": [
            {
              "internalType": "uint256",
              "name": "commission1",
              "type": "uint256"
            },
            {
              "internalType": "uint256",
              "name": "commission2",
              "type": "uint256"
            },
            {
              "internalType": "address",
              "name": "treasuryAddress1",
              "type": "address"
            },
            {
              "internalType": "address",
              "name": "treasuryAddress2",
              "type": "address"
            }
          ],
          "internalType": "struct ArcadeSwapV1.Commission",
          "name": "",
          "type": "tuple"
        }
      ],
      "stateMutability": "view",
      "type": "function"
    }
  ],
  "bytecode": "0x60a06040523060601b60805234801561001757600080fd5b5060805160601c6154af61004b60003960008181610f0901528181610f4c01528181611232015261127501526154af6000f3fe6080604052600436106200023b5760003560e01c80637afd4b23116200012f578063c011267811620000ad578063dae353681162000078578063dae353681462000708578063dbb2fe63146200072d578063de9cb6c81462000793578063f2fde38b14620007b8578063fd7ae47814620007dd57600080fd5b8063c01126781462000676578063c46a87641462000699578063cc52fe5214620006be578063d4ec15ba14620006e357600080fd5b80638da5cb5b11620000fa5780638da5cb5b146200056d57806393f1a40b146200058d578063a6f8166814620005f5578063abf344aa146200062e578063ac22a7cd146200065357600080fd5b80637afd4b2314620004e75780637ebbc93714620005005780638129fc1c146200053d5780638456cb59146200055557600080fd5b806351d414d911620001bd57806365d65e86116200018857806365d65e861462000424578063689652bb1462000460578063715018a6146200048557806371665d77146200049d578063787df6d914620004c257600080fd5b806351d414d914620003a757806354fd4d5014620003cc578063553e8db614620003e55780635c975abb146200040a57600080fd5b80633659cfe6116200020a5780633659cfe6146200030957806336f95670146200032e5780633e96d24a14620003535780633f4ba83a14620003785780634f1ef286146200039057600080fd5b8063147b8c101462000240578063267161fe14620002675780632ccb1b3014620002bc5780633644e51514620002e1575b600080fd5b3480156200024d57600080fd5b50620002656200025f36600462003ada565b62000802565b005b3480156200027457600080fd5b50620002a76200028636600462003bb6565b61013360209081526000928352604080842090915290825290205460ff1681565b60405190151581526020015b60405180910390f35b348015620002c957600080fd5b5062000265620002db36600462003a50565b62000d9a565b348015620002ee57600080fd5b50620002fa6101375481565b604051908152602001620002b3565b3480156200031657600080fd5b506200026562000328366004620039c9565b62000efe565b3480156200033b57600080fd5b50620002656200034d366004620039c9565b62000fd3565b3480156200036057600080fd5b50620002656200037236600462003ca1565b62001047565b3480156200038557600080fd5b5062000265620011a3565b62000265620003a1366004620039e8565b62001227565b348015620003b457600080fd5b5062000265620003c636600462003ccd565b620012e9565b348015620003d957600080fd5b50620002fa61012d5481565b348015620003f257600080fd5b50620002656200040436600462003ada565b620013d5565b3480156200041757600080fd5b5060975460ff16620002a7565b3480156200043157600080fd5b506101385462000447906001600160a01b031681565b6040516001600160a01b039091168152602001620002b3565b3480156200046d57600080fd5b50620002656200047f366004620039c9565b620016a9565b3480156200049257600080fd5b5062000265620016f9565b348015620004aa57600080fd5b5062000265620004bc36600462003bb6565b62001732565b348015620004cf57600080fd5b5062000265620004e136600462003bdd565b620017e0565b348015620004f457600080fd5b50620002fa6101355481565b3480156200050d57600080fd5b50620002fa6200051f36600462003a50565b61013660209081526000928352604080842090915290825290205481565b3480156200054a57600080fd5b506200026562001868565b3480156200056257600080fd5b50620002656200190e565b3480156200057a57600080fd5b506033546001600160a01b031662000447565b3480156200059a57600080fd5b50620005d9620005ac36600462003bb6565b61013060209081526000928352604080842090915290825290208054600182015460029092015490919083565b60408051938452602084019290925290820152606001620002b3565b3480156200060257600080fd5b506200061a6200061436600462003b84565b6200196b565b604051620002b396959493929190620040a1565b3480156200063b57600080fd5b50620002656200064d36600462003ada565b62001ad0565b3480156200066057600080fd5b5061012e5462000447906001600160a01b031681565b3480156200068357600080fd5b5061012f5462000447906001600160a01b031681565b348015620006a657600080fd5b5062000265620006b836600462003c04565b62002161565b348015620006cb57600080fd5b5062000265620006dd36600462003ada565b62002270565b348015620006f057600080fd5b50620002656200070236600462003a9d565b620025b4565b3480156200071557600080fd5b50620004476200072736600462003c04565b62002712565b3480156200073a57600080fd5b50620007526200074c36600462003b84565b6200274c565b604080518251815260208084015190820152828201516001600160a01b039081169282019290925260609283015190911691810191909152608001620002b3565b348015620007a057600080fd5b5062000265620007b236600462003b84565b62002809565b348015620007c557600080fd5b5062000265620007d7366004620039c9565b62002902565b348015620007ea57600080fd5b5062000265620007fc36600462003c26565b620029a1565b60026065541415620008315760405162461bcd60e51b815260040162000828906200406a565b60405180910390fd5b600260655560975460ff16156200085c5760405162461bcd60e51b8152600401620008289062003e71565b6060810151600081815261013160205260409020548114620008925760405162461bcd60e51b8152600401620008289062003f49565b6000818152610131602052604090206005015460ff16620008c75760405162461bcd60e51b8152600401620008289062004043565b620008d28262002ba0565b61013754620008e390839062002cd1565b6101385482516001600160a01b03908116911614620009165760405162461bcd60e51b8152600401620008289062003db1565b60208201516001600160a01b03163314620009455760405162461bcd60e51b8152600401620008289062003ee9565b6060820151600090815261013160205260409081902060020154908301516001600160a01b03908116911614620009905760405162461bcd60e51b8152600401620008289062003fc1565b60608201516101355433600090815261013660209081526040808320858452909152902054620009c19042620042ca565b101562000a115760405162461bcd60e51b815260206004820152601a60248201527f4e6f742074696d6520746f206275792047616d6520506f696e74000000000000604482015260640162000828565b6080830151600082815261013060209081526040808320338452909152902060010154101562000a845760405162461bcd60e51b815260206004820152601860248201527f6e6f7420656e6f7567682067616d652063757272656e63790000000000000000604482015260640162000828565b60008181526101306020908152604080832033845290915290205462000aed5760405162461bcd60e51b815260206004820152601860248201527f696e76616c696420776569676874656420617665726167650000000000000000604482015260640162000828565b60008181526101306020908152604080832033845282528083205484845261013190925282206001015462000b23919062004263565b608085015162000b3c90670de0b6b3a764000062004263565b62000b489190620041bd565b60008381526101346020526040812054919250906127109062000b6c908462004263565b62000b789190620041bd565b60008481526101346020526040812060010154919250906127109062000b9f908562004263565b62000bab9190620041bd565b9050811562000be4576000848152610134602052604090206002015461012f5462000be4916001600160a01b0391821691168462002d68565b801562000c1b576000848152610134602052604090206003015461012f5462000c1b916001600160a01b0391821691168362002d68565b62000c4e338262000c2d8587620042ca565b62000c399190620042ca565b61012f546001600160a01b0316919062002d68565b60408087015160808801519151632770a7eb60e21b815233600482015260248101929092526001600160a01b031690639dc29fac90604401600060405180830381600087803b15801562000ca157600080fd5b505af115801562000cb6573d6000803e3d6000fd5b5050506000858152610130602090815260408083203384529091528120600201805486935090919062000ceb90849062004285565b909155505060808601516000858152610130602090815260408083203384529091528120600101805490919062000d24908490620042ca565b9091555050336000818152610136602090815260408083208884528252918290204290556080890151825181815291820187905281830152905186916002917fa671f3d43b65782e9a6cb1104f9db1c3f675cd3eeb76353620927172e3eb53959181900360600190a45050600160655550505050565b6033546001600160a01b0316331462000dc75760405162461bcd60e51b8152600401620008289062003f14565b6001600160a01b03821662000e1f5760405162461bcd60e51b815260206004820152601960248201527f5472616e7366657220746f207a65726f20616464726573732e00000000000000604482015260640162000828565b61012f546040516370a0823160e01b815230600482015282916001600160a01b0316906370a082319060240160206040518083038186803b15801562000e6457600080fd5b505afa15801562000e79573d6000803e3d6000fd5b505050506040513d601f19601f8201168201806040525081019062000e9f919062003b9d565b101562000ee05760405162461bcd60e51b815260206004820152600e60248201526d1a5b9d985b1a5908185b5bdd5b9d60921b604482015260640162000828565b61012f5462000efa906001600160a01b0316838362002d68565b5050565b306001600160a01b037f000000000000000000000000000000000000000000000000000000000000000016141562000f4a5760405162461bcd60e51b8152600401620008289062003dd9565b7f00000000000000000000000000000000000000000000000000000000000000006001600160a01b031662000f7e62002dcd565b6001600160a01b03161462000fa75760405162461bcd60e51b8152600401620008289062003e25565b62000fb28162002dfb565b6040805160008082526020820190925262000fd09183919062002e28565b50565b6001600160a01b038116620010245760405162461bcd60e51b8152602060048201526016602482015275696e76616c6964207369676e6572206164647265737360501b604482015260640162000828565b61013880546001600160a01b0319166001600160a01b0392909216919091179055565b6033546001600160a01b03163314620010745760405162461bcd60e51b8152600401620008289062003f14565b80821115620010ba5760405162461bcd60e51b815260206004820152601160248201527034b73b30b634b2103830b930b6b2ba32b960791b604482015260640162000828565b6000838152610132602052604090205481106200110d5760405162461bcd60e51b815260206004820152601060248201526f34b73b30b634b2103830b930b6ba32b960811b604482015260640162000828565b815b8181116200119d5760008481526101306020908152604080832061013290925282208054839190859081106200115557634e487b7160e01b600052603260045260246000fd5b60009182526020808320909101546001600160a01b03168352820192909252604001812081815560028101829055600101555080620011948162004350565b9150506200110f565b50505050565b6033546001600160a01b03163314620011d05760405162461bcd60e51b8152600401620008289062003f14565b60975460ff166200121b5760405162461bcd60e51b815260206004820152601460248201527314185d5cd8589b194e881b9bdd081c185d5cd95960621b604482015260640162000828565b6200122562002f84565b565b306001600160a01b037f0000000000000000000000000000000000000000000000000000000000000000161415620012735760405162461bcd60e51b8152600401620008289062003dd9565b7f00000000000000000000000000000000000000000000000000000000000000006001600160a01b0316620012a762002dcd565b6001600160a01b031614620012d05760405162461bcd60e51b8152600401620008289062003e25565b620012db8262002dfb565b62000efa8282600162002e28565b6033546001600160a01b03163314620013165760405162461bcd60e51b8152600401620008289062003f14565b846200135d5760405162461bcd60e51b815260206004820152601560248201527467616d652069642063616e2774206265207a65726f60581b604482015260640162000828565b6040805160808101825294855260208086019485526001600160a01b039384168683019081529284166060870190815260009788526101349091529520935184559151600184015590516002830180549183166001600160a01b03199283161790559251600390920180549290911691909216179055565b60026065541415620013fb5760405162461bcd60e51b815260040162000828906200406a565b600260655560975460ff1615620014265760405162461bcd60e51b8152600401620008289062003e71565b60608101516000818152610131602052604090205481146200145c5760405162461bcd60e51b8152600401620008289062003f49565b6000818152610131602052604090206005015460ff16620014915760405162461bcd60e51b8152600401620008289062004043565b6200149c8262002ba0565b61013754620014ad90839062002cd1565b6101385482516001600160a01b03908116911614620014e05760405162461bcd60e51b8152600401620008289062003db1565b60208201516001600160a01b031633146200150f5760405162461bcd60e51b8152600401620008289062003ee9565b6060820151600090815261013160205260409081902060020154908301516001600160a01b039081169116146200155a5760405162461bcd60e51b8152600401620008289062003fc1565b606082015161013554336000908152610136602090815260408083208584529091529020546200158b9042620042ca565b1015620015db5760405162461bcd60e51b815260206004820152601d60248201527f4e6f742074696d6520746f207570646174652047616d6520506f696e74000000604482015260640162000828565b6080830151600082815261013060209081526040808320338452909152812060010180549091906200160f908490620042ca565b909155505060408381015160808501519151632770a7eb60e21b815233600482015260248101929092526001600160a01b031690639dc29fac90604401600060405180830381600087803b1580156200166757600080fd5b505af11580156200167c573d6000803e3d6000fd5b50503360009081526101366020908152604080832095835294905292909220429055505060016065555050565b6033546001600160a01b03163314620016d65760405162461bcd60e51b8152600401620008289062003f14565b61012f80546001600160a01b0319166001600160a01b0392909216919091179055565b6033546001600160a01b03163314620017265760405162461bcd60e51b8152600401620008289062003f14565b62001225600062003019565b6033546001600160a01b031633146200175f5760405162461bcd60e51b8152600401620008289062003f14565b6001600160a01b038116620017ab5760405162461bcd60e51b815260206004820152601160248201527034b73b30b634b2103830b930b6b2ba32b960791b604482015260640162000828565b6000918252610130602090815260408084206001600160a01b0393909316845291905281208181556002810182905560010155565b6033546001600160a01b031633146200180d5760405162461bcd60e51b8152600401620008289062003f14565b60008281526101316020908152604091829020600501805460ff1916841515908117909155915191825283917fed9dddd44d27ee072d0eae6dfadbc260335a541b4fad6ead26fb9aba6c4182fd910160405180910390a25050565b600054610100900460ff16620018855760005460ff161562001889565b303b155b620018a85760405162461bcd60e51b8152600401620008289062003e9b565b600054610100900460ff16158015620018cb576000805461ffff19166101011790555b620018d56200306b565b620018df620030a9565b620018e9620030dd565b620018f36200311b565b600161012d55801562000fd0576000805461ff001916905550565b6033546001600160a01b031633146200193b5760405162461bcd60e51b8152600401620008289062003f14565b60975460ff1615620019615760405162461bcd60e51b8152600401620008289062003e71565b6200122562003159565b610131602052600090815260409020805460018201546002830154600384018054939492936001600160a01b039092169291620019a89062004313565b80601f0160208091040260200160405190810160405280929190818152602001828054620019d69062004313565b801562001a275780601f10620019fb5761010080835404028352916020019162001a27565b820191906000526020600020905b81548152906001019060200180831162001a0957829003601f168201915b50505050509080600401805462001a3e9062004313565b80601f016020809104026020016040519081016040528092919081815260200182805462001a6c9062004313565b801562001abd5780601f1062001a915761010080835404028352916020019162001abd565b820191906000526020600020905b81548152906001019060200180831162001a9f57829003601f168201915b5050506005909301549192505060ff1686565b6002606554141562001af65760405162461bcd60e51b815260040162000828906200406a565b600260655560975460ff161562001b215760405162461bcd60e51b8152600401620008289062003e71565b606081015160008181526101316020526040902054811462001b575760405162461bcd60e51b8152600401620008289062003f49565b6000818152610131602052604090206005015460ff1662001b8c5760405162461bcd60e51b8152600401620008289062004043565b62001b978262002ba0565b6101375462001ba890839062002cd1565b6101385482516001600160a01b0390811691161462001bdb5760405162461bcd60e51b8152600401620008289062003db1565b60208201516001600160a01b0316331462001c0a5760405162461bcd60e51b8152600401620008289062003ee9565b6060820151600090815261013160205260409081902060020154908301516001600160a01b0390811691161462001c555760405162461bcd60e51b8152600401620008289062003fc1565b6060820151610135543360009081526101366020908152604080832085845290915290205462001c869042620042ca565b101562001cd65760405162461bcd60e51b815260206004820152601a60248201527f4e6f742074696d6520746f206275792047616d6520506f696e74000000000000604482015260640162000828565b6000818152610134602052604081205460808501516127109162001cfa9162004263565b62001d069190620041bd565b60008381526101346020526040812060010154608087015192935090916127109162001d329162004263565b62001d3e9190620041bd565b9050811562001d79576000838152610134602052604090206002015461012f5462001d79916001600160a01b039182169133911685620031b5565b801562001db2576000838152610134602052604090206003015461012f5462001db2916001600160a01b039182169133911684620031b5565b62001ded33308385896080015162001dcb9190620042ca565b62001dd79190620042ca565b61012f546001600160a01b0316929190620031b5565b61012e5461012f5460405163327dc54f60e21b81526001600160a01b03918216600482015260126024820152600092919091169063c9f7153c9060440160206040518083038186803b15801562001e4357600080fd5b505afa15801562001e58573d6000803e3d6000fd5b505050506040513d601f19601f8201168201806040525081019062001e7e919062003b9d565b60808701516000868152610131602052604081206001015492935091670de0b6b3a7640000919062001eb290859062004263565b62001ebe919062004263565b62001eca9190620041bd565b600086815261013060209081526040808320338452909152902054608089015191925090670de0b6b3a76400009062001f0590859062004263565b62001f119190620041bd565b600087815261013060209081526040808320338452909152902060020154670de0b6b3a76400009062001f459084620041d4565b62001f51919062004189565b62001f5d919062004127565b608089015160008881526101306020908152604080832033845290915281206002018054939450919262001f9390849062004127565b909155505060008681526101306020908152604080832033845290915290206002015462001fca82670de0b6b3a7640000620041d4565b62001fd6919062004189565b6000878152610130602090815260408083203384529091528120918255600190910180548492906200200a9084906200416e565b909155505060408881015190516340c10f1960e01b8152336004820152602481018490526001600160a01b03909116906340c10f1990604401600060405180830381600087803b1580156200205e57600080fd5b505af115801562002073573d6000803e3d6000fd5b5050336000818152610136602090815260408083208c845282528083204290556101338252808320938352929052205460ff1691506200210690505760008681526101336020908152604080832033808552908352818420805460ff191660019081179091558a855261013284529184208054928301815584529190922090910180546001600160a01b03191690911790555b608088015160408051918252602082018490528101839052339087906001907fa671f3d43b65782e9a6cb1104f9db1c3f675cd3eeb76353620927172e3eb53959060600160405180910390a450506001606555505050505050565b6033546001600160a01b031633146200218e5760405162461bcd60e51b8152600401620008289062003f14565b6000828152610131602052604090205482908114620021c15760405162461bcd60e51b8152600401620008289062003f49565b6000818152610131602052604090206005015460ff16620021f65760405162461bcd60e51b8152600401620008289062004043565b60008211620022195760405162461bcd60e51b8152600401620008289062003f77565b60008381526101316020526040908190206001018390555183907fada4f034ca01c38042ff8d3f22d9768a83d42ca3b4ae8214c2f6f1054339f18090620022639085815260200190565b60405180910390a2505050565b60026065541415620022965760405162461bcd60e51b815260040162000828906200406a565b600260655560975460ff1615620022c15760405162461bcd60e51b8152600401620008289062003e71565b6060810151600081815261013160205260409020548114620022f75760405162461bcd60e51b8152600401620008289062003f49565b6000818152610131602052604090206005015460ff166200232c5760405162461bcd60e51b8152600401620008289062004043565b620023378262002ba0565b610137546200234890839062002cd1565b6101385482516001600160a01b039081169116146200237b5760405162461bcd60e51b8152600401620008289062003db1565b60208201516001600160a01b03163314620023aa5760405162461bcd60e51b8152600401620008289062003ee9565b6060820151600090815261013160205260409081902060020154908301516001600160a01b03908116911614620023f55760405162461bcd60e51b8152600401620008289062003fc1565b60608201516101355433600090815261013660209081526040808320858452909152902054620024269042620042ca565b1015620024765760405162461bcd60e51b815260206004820152601d60248201527f4e6f742074696d6520746f207570646174652047616d6520506f696e74000000604482015260640162000828565b608083015160008281526101306020908152604080832033845290915281206001018054909190620024aa9084906200416e565b9091555050604083810151608085015191516340c10f1960e01b815233600482015260248101929092526001600160a01b0316906340c10f1990604401600060405180830381600087803b1580156200250257600080fd5b505af115801562002517573d6000803e3d6000fd5b50503360008181526101366020908152604080832087845282528083204290556101338252808320938352929052205460ff169150620025aa90505760008181526101336020908152604080832033808552908352818420805460ff1916600190811790915585855261013284529184208054928301815584529190922090910180546001600160a01b03191690911790555b5050600160655550565b600054610100900460ff16620025d15760005460ff1615620025d5565b303b155b620025f45760405162461bcd60e51b8152600401620008289062003e9b565b600054610100900460ff1615801562002617576000805461ffff19166101011790555b6200262162001868565b61012e80546001600160a01b038581166001600160a01b03199283161790925561012f805492851692909116919091179055604080517f8b73c3c69bb8fe3d512ecc4cf759cc79239f7b179b0ffacaa9a75d522b39400f60208201527f3c85fd0577007275f5c03ad0953d6a605c8246147786e2ccba8db6e8f7c01b44918101919091527fc89efdaa54c0f20c7adf612882df0950f5a951637e0307cdcb4c672f298b8bc6606082015246608082018190523060a08301529060c00160408051601f198184030181529190528051602090910120610137555080156200270d576000805461ff00191690555b505050565b61013260205281600052604060002081815481106200273057600080fd5b6000918252602090912001546001600160a01b03169150829050565b60408051608081018252600080825260208201819052918101829052606081019190915281620027b75760405162461bcd60e51b815260206004820152601560248201527467616d652069642063616e2774206265207a65726f60581b604482015260640162000828565b506000908152610134602090815260409182902082516080810184528154815260018201549281019290925260028101546001600160a01b039081169383019390935260030154909116606082015290565b6033546001600160a01b03163314620028365760405162461bcd60e51b8152600401620008289062003f14565b600081116200287c5760405162461bcd60e51b81526020600482015260116024820152702737b716bd32b93790323ab930ba34b7b760791b604482015260640162000828565b80610135541415620028c65760405162461bcd60e51b81526020600482015260126024820152712234b33332b932b73a10323ab930ba34b7b760711b604482015260640162000828565b6101358190556040518181527f3e708db8fd81407fcdc49d551e106b475c77fc5ab085e189911e2ba1270061d99060200160405180910390a150565b6033546001600160a01b031633146200292f5760405162461bcd60e51b8152600401620008289062003f14565b6001600160a01b038116620029965760405162461bcd60e51b815260206004820152602660248201527f4f776e61626c653a206e6577206f776e657220697320746865207a65726f206160448201526564647265737360d01b606482015260840162000828565b62000fd08162003019565b6033546001600160a01b03163314620029ce5760405162461bcd60e51b8152600401620008289062003f14565b6000848152610131602052604090205484141562002a255760405162461bcd60e51b8152602060048201526013602482015272105b1c9958591e481a5b9a5d1a585b1a5e9959606a1b604482015260640162000828565b6000831162002a485760405162461bcd60e51b8152600401620008289062003f77565b6000828260405162002a5a9062003852565b62002a6792919062003d88565b604051809103906000f08015801562002a84573d6000803e3d6000fd5b506040805160c08101825287815260208082018881526001600160a01b03858116848601908152606085018a8152608086018a9052600160a0870181905260008e815261013187529790972086518155935196840196909655516002830180546001600160a01b0319169190921617905592518051949550919362002b10926003850192019062003860565b506080820151805162002b2e91600484019160209091019062003860565b5060a08201518160050160006101000a81548160ff021916908315150217905550905050806001600160a01b031684867fcc066139df7b5f992dfa7bfd83b3f7b6834b36abeaaedae682555e9895e81dd7868660405162002b9192919062003d88565b60405180910390a45050505050565b80516001600160a01b031662002be95760405162461bcd60e51b815260206004820152600d60248201526c34b73b30b634b21036b0b5b2b960991b604482015260640162000828565b60208101516001600160a01b031662002c165760405162461bcd60e51b8152600401620008289062003ee9565b60408101516001600160a01b031662002c435760405162461bcd60e51b8152600401620008289062003fc1565b600081606001511162002c8a5760405162461bcd60e51b815260206004820152600e60248201526d1a5b9d985b1a590819d85b59525960921b604482015260640162000828565b600081608001511162000fd05760405162461bcd60e51b815260206004820152600e60248201526d1a5b9d985b1a5908185b5bdd5b9d60921b604482015260640162000828565b600062002cde83620031ef565b9050600062002cff83838660e00151876101000151886101200151620032a8565b90506001600160a01b0381161580159062002d26575083516001600160a01b038281169116145b6200119d5760405162461bcd60e51b8152602060048201526011602482015270696e76616c6964207369676e617475726560781b604482015260640162000828565b6040516001600160a01b0383166024820152604481018290526200270d90849063a9059cbb60e01b906064015b60408051601f198184030181529190526020810180516001600160e01b03166001600160e01b0319909316929092179091526200334b565b7f360894a13ba1a3210667c828492db98dca3e2076cc3735a920a3ca505d382bbc546001600160a01b031690565b6033546001600160a01b0316331462000fd05760405162461bcd60e51b8152600401620008289062003f14565b600062002e3462002dcd565b905062002e418462003424565b60008351118062002e4f5750815b1562002e635762002e618484620034cb565b505b7f4910fdfa16fed3260ed0e7147f7cc6da11a60208b5b9406d12a635614ffd9143805460ff1662002f7d57805460ff191660011781556040516001600160a01b038316602482015262002ee590869060440160408051601f198184030181529190526020810180516001600160e01b0316631b2ce7f360e11b179052620034cb565b50805460ff1916815562002ef862002dcd565b6001600160a01b0316826001600160a01b03161462002f725760405162461bcd60e51b815260206004820152602f60248201527f45524331393637557067726164653a207570677261646520627265616b73206660448201526e75727468657220757067726164657360881b606482015260840162000828565b62002f7d85620035bf565b5050505050565b60975460ff1662002fcf5760405162461bcd60e51b815260206004820152601460248201527314185d5cd8589b194e881b9bdd081c185d5cd95960621b604482015260640162000828565b6097805460ff191690557f5db9ee0a495bf2e6ff9c91a7834c1ba4fdd244a5e8aa4e537bd38aeae4b073aa335b6040516001600160a01b03909116815260200160405180910390a1565b603380546001600160a01b038381166001600160a01b0319831681179093556040519116919082907f8be0079c531659141344cd1fd0a4f28419497f9722a3daafe3b4186f6b6457e090600090a35050565b600054610100900460ff16620030955760405162461bcd60e51b8152600401620008289062003ff8565b6200309f62003601565b620012256200362b565b600054610100900460ff16620030d35760405162461bcd60e51b8152600401620008289062003ff8565b6200122562003660565b600054610100900460ff16620031075760405162461bcd60e51b8152600401620008289062003ff8565b6200311162003601565b6200122562003691565b600054610100900460ff16620031455760405162461bcd60e51b8152600401620008289062003ff8565b6200314f62003601565b6200122562003601565b60975460ff16156200317f5760405162461bcd60e51b8152600401620008289062003e71565b6097805460ff191660011790557f62e78cea01bee320cd4e420270b5ea74000d11b0c9f74754ebdbfc544b05a25862002ffc3390565b6040516001600160a01b03808516602483015283166044820152606481018290526200119d9085906323b872dd60e01b9060840162002d95565b80516020808301516040808501516060860151608087015160a088015160c089015194516000986200328b987fd32aee5345fa208c941f81688a0bd6baed57015ace9fce44cfd25c5fb8a5fbf7989197919695949392019788526001600160a01b0396871660208901529486166040880152929094166060860152608085015260a084019290925260c083019190915260e08201526101000190565b604051602081830303815290604052805190602001209050919050565b60405161190160f01b60208201526022810186905260428101859052600090819060620160408051601f1981840301815282825280516020918201206000845290830180835281905260ff8816918301919091526060820186905260808201859052915060019060a0016020604051602081039080840390855afa15801562003335573d6000803e3d6000fd5b5050604051601f19015198975050505050505050565b6000620033a2826040518060400160405280602081526020017f5361666545524332303a206c6f772d6c6576656c2063616c6c206661696c6564815250856001600160a01b0316620036c79092919063ffffffff16565b8051909150156200270d5780806020019051810190620033c3919062003a7e565b6200270d5760405162461bcd60e51b815260206004820152602a60248201527f5361666545524332303a204552433230206f7065726174696f6e20646964206e6044820152691bdd081cdd58d8d9595960b21b606482015260840162000828565b803b6200348a5760405162461bcd60e51b815260206004820152602d60248201527f455243313936373a206e657720696d706c656d656e746174696f6e206973206e60448201526c1bdd08184818dbdb9d1c9858dd609a1b606482015260840162000828565b7f360894a13ba1a3210667c828492db98dca3e2076cc3735a920a3ca505d382bbc80546001600160a01b0319166001600160a01b0392909216919091179055565b6060823b6200352c5760405162461bcd60e51b815260206004820152602660248201527f416464726573733a2064656c65676174652063616c6c20746f206e6f6e2d636f6044820152651b9d1c9858dd60d21b606482015260840162000828565b600080846001600160a01b03168460405162003549919062003d55565b600060405180830381855af49150503d806000811462003586576040519150601f19603f3d011682016040523d82523d6000602084013e6200358b565b606091505b5091509150620035b682826040518060600160405280602781526020016200545360279139620036e2565b95945050505050565b620035ca8162003424565b6040516001600160a01b038216907fbc7cd75a20ee27fd9adebab32041f755214dbc6bffa90cc0225b39da2e5c2d3b90600090a250565b600054610100900460ff16620012255760405162461bcd60e51b8152600401620008289062003ff8565b600054610100900460ff16620036555760405162461bcd60e51b8152600401620008289062003ff8565b620012253362003019565b600054610100900460ff166200368a5760405162461bcd60e51b8152600401620008289062003ff8565b6001606555565b600054610100900460ff16620036bb5760405162461bcd60e51b8152600401620008289062003ff8565b6097805460ff19169055565b6060620036d8848460008562003720565b90505b9392505050565b60608315620036f3575081620036db565b825115620037045782518084602001fd5b8160405162461bcd60e51b815260040162000828919062003d73565b606082471015620037835760405162461bcd60e51b815260206004820152602660248201527f416464726573733a20696e73756666696369656e742062616c616e636520666f6044820152651c8818d85b1b60d21b606482015260840162000828565b843b620037d35760405162461bcd60e51b815260206004820152601d60248201527f416464726573733a2063616c6c20746f206e6f6e2d636f6e7472616374000000604482015260640162000828565b600080866001600160a01b03168587604051620037f1919062003d55565b60006040518083038185875af1925050503d806000811462003830576040519150601f19603f3d011682016040523d82523d6000602084013e62003835565b606091505b509150915062003847828286620036e2565b979650505050505050565b61107d80620043d683390190565b8280546200386e9062004313565b90600052602060002090601f016020900481019282620038925760008555620038dd565b82601f10620038ad57805160ff1916838001178555620038dd565b82800160010185558215620038dd579182015b82811115620038dd578251825591602001919060010190620038c0565b50620038eb929150620038ef565b5090565b5b80821115620038eb5760008155600101620038f0565b600067ffffffffffffffff808411156200392457620039246200439a565b604051601f8501601f19908116603f011681019082821181831017156200394f576200394f6200439a565b816040528093508581528686860111156200396957600080fd5b858560208301376000602087830101525050509392505050565b80356200399081620043b0565b919050565b600082601f830112620039a6578081fd5b620036db8383356020850162003906565b803560ff811681146200399057600080fd5b600060208284031215620039db578081fd5b8135620036db81620043b0565b60008060408385031215620039fb578081fd5b823562003a0881620043b0565b9150602083013567ffffffffffffffff81111562003a24578182fd5b8301601f8101851362003a35578182fd5b62003a468582356020840162003906565b9150509250929050565b6000806040838503121562003a63578182fd5b823562003a7081620043b0565b946020939093013593505050565b60006020828403121562003a90578081fd5b8151620036db81620043c6565b6000806040838503121562003ab0578182fd5b823562003abd81620043b0565b9150602083013562003acf81620043b0565b809150509250929050565b6000610140828403121562003aed578081fd5b62003af7620040fa565b62003b028362003983565b815262003b126020840162003983565b602082015262003b256040840162003983565b6040820152606083013560608201526080830135608082015260a083013560a082015260c083013560c082015262003b6060e08401620039b7565b60e08201526101008381013590820152610120928301359281019290925250919050565b60006020828403121562003b96578081fd5b5035919050565b60006020828403121562003baf578081fd5b5051919050565b6000806040838503121562003bc9578182fd5b82359150602083013562003acf81620043b0565b6000806040838503121562003bf0578182fd5b82359150602083013562003acf81620043c6565b6000806040838503121562003c17578182fd5b50508035926020909101359150565b6000806000806080858703121562003c3c578182fd5b8435935060208501359250604085013567ffffffffffffffff8082111562003c62578384fd5b62003c708883890162003995565b9350606087013591508082111562003c86578283fd5b5062003c958782880162003995565b91505092959194509250565b60008060006060848603121562003cb6578081fd5b505081359360208301359350604090920135919050565b600080600080600060a0868803121562003ce5578283fd5b853594506020860135935060408601359250606086013562003d0781620043b0565b9150608086013562003d1981620043b0565b809150509295509295909350565b6000815180845262003d41816020860160208601620042e4565b601f01601f19169290920160200192915050565b6000825162003d69818460208701620042e4565b9190910192915050565b602081526000620036db602083018462003d27565b60408152600062003d9d604083018562003d27565b8281036020840152620035b6818562003d27565b6020808252600e908201526d34b73b30b634b21039b4b3b732b960911b604082015260600190565b6020808252602c908201527f46756e6374696f6e206d7573742062652063616c6c6564207468726f7567682060408201526b19195b1959d85d1958d85b1b60a21b606082015260800190565b6020808252602c908201527f46756e6374696f6e206d7573742062652063616c6c6564207468726f7567682060408201526b6163746976652070726f787960a01b606082015260800190565b60208082526010908201526f14185d5cd8589b194e881c185d5cd95960821b604082015260600190565b6020808252602e908201527f496e697469616c697a61626c653a20636f6e747261637420697320616c72656160408201526d191e481a5b9a5d1a585b1a5e995960921b606082015260800190565b60208082526011908201527034b73b30b634b2103932b8bab2b9ba32b960791b604082015260600190565b6020808252818101527f4f776e61626c653a2063616c6c6572206973206e6f7420746865206f776e6572604082015260600190565b6020808252601490820152736e6f7420696e697469616c697a65642067616d6560601b604082015260600190565b6020808252602a908201527f696e76616c69642067616d652063757272656e637920616d6f756e74207065726040820152691030b931903a37b5b2b760b11b606082015260800190565b6020808252601b908201527f696e76616c69642067616d652063757272656e637920746f6b656e0000000000604082015260600190565b6020808252602b908201527f496e697469616c697a61626c653a20636f6e7472616374206973206e6f74206960408201526a6e697469616c697a696e6760a81b606082015260800190565b6020808252600d908201526c696e6163746976652067616d6560981b604082015260600190565b6020808252601f908201527f5265656e7472616e637947756172643a207265656e7472616e742063616c6c00604082015260600190565b86815285602082015260018060a01b038516604082015260c060608201526000620040d060c083018662003d27565b8281036080840152620040e4818662003d27565b91505082151560a0830152979650505050505050565b604051610140810167ffffffffffffffff811182821017156200412157620041216200439a565b60405290565b600080821280156001600160ff1b03849003851316156200414c576200414c6200436e565b600160ff1b83900384128116156200416857620041686200436e565b50500190565b600082198211156200418457620041846200436e565b500190565b6000826200419b576200419b62004384565b600160ff1b821460001984141615620041b857620041b86200436e565b500590565b600082620041cf57620041cf62004384565b500490565b60006001600160ff1b0381841382841380821686840486111615620041fd57620041fd6200436e565b600160ff1b848712828116878305891216156200421e576200421e6200436e565b8587129250878205871284841616156200423c576200423c6200436e565b878505871281841616156200425557620042556200436e565b505050929093029392505050565b60008160001904831182151516156200428057620042806200436e565b500290565b60008083128015600160ff1b850184121615620042a657620042a66200436e565b6001600160ff1b0384018313811615620042c457620042c46200436e565b50500390565b600082821015620042df57620042df6200436e565b500390565b60005b8381101562004301578181015183820152602001620042e7565b838111156200119d5750506000910152565b600181811c908216806200432857607f821691505b602082108114156200434a57634e487b7160e01b600052602260045260246000fd5b50919050565b60006000198214156200436757620043676200436e565b5060010190565b634e487b7160e01b600052601160045260246000fd5b634e487b7160e01b600052601260045260246000fd5b634e487b7160e01b600052604160045260246000fd5b6001600160a01b038116811462000fd057600080fd5b801515811462000fd057600080fdfe60806040523480156200001157600080fd5b506040516200107d3803806200107d833981016040819052620000349162000237565b8151829082906200004d906003906020850190620000de565b50805162000063906004906020840190620000de565b505050620000806200007a6200008860201b60201c565b6200008c565b5050620002f1565b3390565b600580546001600160a01b038381166001600160a01b0319831681179093556040519116919082907f8be0079c531659141344cd1fd0a4f28419497f9722a3daafe3b4186f6b6457e090600090a35050565b828054620000ec906200029e565b90600052602060002090601f0160209004810192826200011057600085556200015b565b82601f106200012b57805160ff19168380011785556200015b565b828001600101855582156200015b579182015b828111156200015b5782518255916020019190600101906200013e565b50620001699291506200016d565b5090565b5b808211156200016957600081556001016200016e565b600082601f83011262000195578081fd5b81516001600160401b0380821115620001b257620001b2620002db565b604051601f8301601f19908116603f01168101908282118183101715620001dd57620001dd620002db565b81604052838152602092508683858801011115620001f9578485fd5b8491505b838210156200021c5785820183015181830184015290820190620001fd565b838211156200022d57848385830101525b9695505050505050565b600080604083850312156200024a578182fd5b82516001600160401b038082111562000261578384fd5b6200026f8683870162000184565b9350602085015191508082111562000285578283fd5b50620002948582860162000184565b9150509250929050565b600181811c90821680620002b357607f821691505b60208210811415620002d557634e487b7160e01b600052602260045260246000fd5b50919050565b634e487b7160e01b600052604160045260246000fd5b610d7c80620003016000396000f3fe608060405234801561001057600080fd5b50600436106101005760003560e01c8063715018a611610097578063a457c2d711610066578063a457c2d714610209578063a9059cbb1461021c578063dd62ed3e1461022f578063f2fde38b1461026857600080fd5b8063715018a6146101cb5780638da5cb5b146101d357806395d89b41146101ee5780639dc29fac146101f657600080fd5b8063313ce567116100d3578063313ce5671461016b578063395093511461017a57806340c10f191461018d57806370a08231146101a257600080fd5b806306fdde0314610105578063095ea7b31461012357806318160ddd1461014657806323b872dd14610158575b600080fd5b61010d61027b565b60405161011a9190610c3e565b60405180910390f35b610136610131366004610c15565b61030d565b604051901515815260200161011a565b6002545b60405190815260200161011a565b610136610166366004610bda565b610323565b6040516012815260200161011a565b610136610188366004610c15565b6103d2565b6101a061019b366004610c15565b61040e565b005b61014a6101b0366004610b87565b6001600160a01b031660009081526020819052604090205490565b6101a0610446565b6005546040516001600160a01b03909116815260200161011a565b61010d61047c565b6101a0610204366004610c15565b61048b565b610136610217366004610c15565b6104bf565b61013661022a366004610c15565b610558565b61014a61023d366004610ba8565b6001600160a01b03918216600090815260016020908152604080832093909416825291909152205490565b6101a0610276366004610b87565b610565565b60606003805461028a90610cf5565b80601f01602080910402602001604051908101604052809291908181526020018280546102b690610cf5565b80156103035780601f106102d857610100808354040283529160200191610303565b820191906000526020600020905b8154815290600101906020018083116102e657829003601f168201915b5050505050905090565b600061031a338484610600565b50600192915050565b6000610330848484610725565b6001600160a01b0384166000908152600160209081526040808320338452909152902054828110156103ba5760405162461bcd60e51b815260206004820152602860248201527f45524332303a207472616e7366657220616d6f756e74206578636565647320616044820152676c6c6f77616e636560c01b60648201526084015b60405180910390fd5b6103c78533858403610600565b506001949350505050565b3360008181526001602090815260408083206001600160a01b0387168452909152812054909161031a918590610409908690610cc6565b610600565b6005546001600160a01b031633146104385760405162461bcd60e51b81526004016103b190610c91565b61044282826108f4565b5050565b6005546001600160a01b031633146104705760405162461bcd60e51b81526004016103b190610c91565b61047a60006109d3565b565b60606004805461028a90610cf5565b6005546001600160a01b031633146104b55760405162461bcd60e51b81526004016103b190610c91565b6104428282610a25565b3360009081526001602090815260408083206001600160a01b0386168452909152812054828110156105415760405162461bcd60e51b815260206004820152602560248201527f45524332303a2064656372656173656420616c6c6f77616e63652062656c6f77604482015264207a65726f60d81b60648201526084016103b1565b61054e3385858403610600565b5060019392505050565b600061031a338484610725565b6005546001600160a01b0316331461058f5760405162461bcd60e51b81526004016103b190610c91565b6001600160a01b0381166105f45760405162461bcd60e51b815260206004820152602660248201527f4f776e61626c653a206e6577206f776e657220697320746865207a65726f206160448201526564647265737360d01b60648201526084016103b1565b6105fd816109d3565b50565b6001600160a01b0383166106625760405162461bcd60e51b8152602060048201526024808201527f45524332303a20617070726f76652066726f6d20746865207a65726f206164646044820152637265737360e01b60648201526084016103b1565b6001600160a01b0382166106c35760405162461bcd60e51b815260206004820152602260248201527f45524332303a20617070726f766520746f20746865207a65726f206164647265604482015261737360f01b60648201526084016103b1565b6001600160a01b0383811660008181526001602090815260408083209487168084529482529182902085905590518481527f8c5be1e5ebec7d5bd14f71427d1e84f3dd0314c0f7b2291e5b200ac8c7c3b92591015b60405180910390a3505050565b6001600160a01b0383166107895760405162461bcd60e51b815260206004820152602560248201527f45524332303a207472616e736665722066726f6d20746865207a65726f206164604482015264647265737360d81b60648201526084016103b1565b6001600160a01b0382166107eb5760405162461bcd60e51b815260206004820152602360248201527f45524332303a207472616e7366657220746f20746865207a65726f206164647260448201526265737360e81b60648201526084016103b1565b6001600160a01b038316600090815260208190526040902054818110156108635760405162461bcd60e51b815260206004820152602660248201527f45524332303a207472616e7366657220616d6f756e7420657863656564732062604482015265616c616e636560d01b60648201526084016103b1565b6001600160a01b0380851660009081526020819052604080822085850390559185168152908120805484929061089a908490610cc6565b92505081905550826001600160a01b0316846001600160a01b03167fddf252ad1be2c89b69c2b068fc378daa952ba7f163c4a11628f55a4df523b3ef846040516108e691815260200190565b60405180910390a350505050565b6001600160a01b03821661094a5760405162461bcd60e51b815260206004820152601f60248201527f45524332303a206d696e7420746f20746865207a65726f20616464726573730060448201526064016103b1565b806002600082825461095c9190610cc6565b90915550506001600160a01b03821660009081526020819052604081208054839290610989908490610cc6565b90915550506040518181526001600160a01b038316906000907fddf252ad1be2c89b69c2b068fc378daa952ba7f163c4a11628f55a4df523b3ef9060200160405180910390a35050565b600580546001600160a01b038381166001600160a01b0319831681179093556040519116919082907f8be0079c531659141344cd1fd0a4f28419497f9722a3daafe3b4186f6b6457e090600090a35050565b6001600160a01b038216610a855760405162461bcd60e51b815260206004820152602160248201527f45524332303a206275726e2066726f6d20746865207a65726f206164647265736044820152607360f81b60648201526084016103b1565b6001600160a01b03821660009081526020819052604090205481811015610af95760405162461bcd60e51b815260206004820152602260248201527f45524332303a206275726e20616d6f756e7420657863656564732062616c616e604482015261636560f01b60648201526084016103b1565b6001600160a01b0383166000908152602081905260408120838303905560028054849290610b28908490610cde565b90915550506040518281526000906001600160a01b038516907fddf252ad1be2c89b69c2b068fc378daa952ba7f163c4a11628f55a4df523b3ef90602001610718565b80356001600160a01b0381168114610b8257600080fd5b919050565b600060208284031215610b98578081fd5b610ba182610b6b565b9392505050565b60008060408385031215610bba578081fd5b610bc383610b6b565b9150610bd160208401610b6b565b90509250929050565b600080600060608486031215610bee578081fd5b610bf784610b6b565b9250610c0560208501610b6b565b9150604084013590509250925092565b60008060408385031215610c27578182fd5b610c3083610b6b565b946020939093013593505050565b6000602080835283518082850152825b81811015610c6a57858101830151858201604001528201610c4e565b81811115610c7b5783604083870101525b50601f01601f1916929092016040019392505050565b6020808252818101527f4f776e61626c653a2063616c6c6572206973206e6f7420746865206f776e6572604082015260600190565b60008219821115610cd957610cd9610d30565b500190565b600082821015610cf057610cf0610d30565b500390565b600181811c90821680610d0957607f821691505b60208210811415610d2a57634e487b7160e01b600052602260045260246000fd5b50919050565b634e487b7160e01b600052601160045260246000fdfea2646970667358221220edcc6ac11260237df35fa9b3b97122ac93d44f59a0819f706ba57a48f9a286b664736f6c63430008040033416464726573733a206c6f772d6c6576656c2064656c65676174652063616c6c206661696c6564a2646970667358221220e7356d803cb9b273824a27d95b95825184e9e2e1a5ac0ca7b3d34a5b055b668f64736f6c63430008040033",
  "linkReferences": {},
  "deployedLinkReferences": {}
}